:03000000020BA24E
:0C0BA200787FE4F6D8FD75813E020BE977
:070E39006572726F72210067
:0B0E2200C103010900010A00010800E3
:03002300020E408A
:030E4000C2983223
:100A1700D2AF7F0A7E00120C2E120D8A120DCA1257
:100A27000DB63003FDC2037B007A007921120CA7B3
:100A37009200200003020AE5AE21E5227804CEA247
:100A4700E713CE13D8F8FDAC06752300E522540F43
:100A5700F5247B007A007926120AF78F250525747D
:100A6700262FF8762EAE23AF247C007D0A12082BA2
:100A77007D1012083D8E238F24EF2430FFAE25050D
:100A87002574262EF8A607C3E5259406748094805E
:100A9700500CAF25052574262FF8762080E974269B
:100AA7002525F8E4F6FB7A007926FDFF120CFF7482
:100AB700242525F8760D74252525F8760AE4FFFE0A
:100AC700C3EF95257480F86E98501F74262FF8E6AB
:100AD700F5993099FDC2990FBF00010E80E27BFFA7
:100AE7007A0E7939E4FDFF120CFF120D8A020A29EA
:0A0AF7008B328A3389348C358D363A
:100B0100E4F537F538C3E53564809480501CC3E4BF
:100B11009536F536E49535F5350534E5347002053D
:100B21003314F9742D1208190538AE35AF367C002F
:100B31007D0A12083DAF05AE37053774392EF8A688
:100B410007AE35AF367C007D0A12083D8E358F36F3
:100B5100D3E5369400E5356480948050CDE53725A2
:100B610038F538AF371537EF3395E0FED3EF940002
:100B7100EE64809480401D74392537F8E62430FFF7
:100B8100AB320534E534AA337002053314F9EF12A0
:100B9100081980CFAB32AA33A934E4120819AF384F
:010BA1002231
:100DB600759850438920758DF3758BF3438780D2E0
:040DC6008ED2AC22FB
:100C2E0075350075341075330E753200E4FCFDAB6E
:100C3E0035AA34A933A832120892E47BE87A03F974
:100C4E00F812091D8F358E348D338C32C3E49535F1
:100C5E00F535E49534F53474019533F533E4953276
:100C6E00F532E535240CF535E43534F534E4353319
:100C7E00F533E43532F532AF35AE34AD33FC7808AA
:100C8E001209AF8F0985350A5389F0438901850909
:080C9E008C850A8AD2A9D28CD0
:010CA600222B
:03000B00020D4D96
:040D4D00C0E0C0D072
:100D510085098C850A8A0508C3E508946474809422
:080D6100804005750800D20373
:050D6900D0D0D0E03203
:0B0E2E000000000000000000DFF622C2
:100D6E00C2AFC2B77F32120E2ED2B77F06120E2E30
:0B0D7E00A2B7920230B7FDD2AFA20274
:010D89002247
:020D2700AE0715
:100D2900C2AF7D01ED601AC2B700005E7004C2B7A0
:100D39008002D2B77F06120E2ED2B7ED25E0FD80D4
:030D4900E3D2AF43
:010D4C002284
:100CD500C2AF7D01ED601EC2B70000D2B700002093
:100CE500B705F452068003ED42067F06120E2EED7F
:090CF50025E0FD80DFD2AFAF065F
:010CFE0022D3
:100D8A00120D6E920120010A7FCC120D277F4412A8
:050D9A000D27A201B3CA
:010D9F002231
:100CA700120D6E92012001227FCC120D277FBE12FA
:100CB7000D27120CD5AC07120CD5EFFEAD047C0046
:0D0CC700E42DFFEC3E8FF0120873A201B384
:010CD40022FD
:100DDE007580FFC290D291D292AF80C292EF20E77F
:010DEE00F60E
:010DEF0022E1
:100E0200AE07120DDEC290C2918E80D292C29222A1
:100E1200AE07120DDED290C2918E80D292C2922281
:100DF000ED7004AC078004EF2440FCEC4480FF025B
:020E00000E02E0
:100CFF008B328A338934120DF0AB32AA33A93412F6
:100D0F00080060130534E5347002053314F9120836
:080D1F0000FF120E1280E22217
:100DCA007F38120E027F0C120E027F06120E027F6D
:040DDA0001020E0202
:100DA000758920E4F587759850758DFD758BFDD29A
:060DB0008ED2ACD2AF228E
:100BAE00020A17E493A3F8E493A34003F68001F23C
:100BBE0008DFF48029E493A3F85407240CC8C33348
:100BCE00C4540F4420C8834004F456800146F6DF17
:100BDE00E4800B0102040810204080900E22E47E77
:100BEE00019360BCA3FF543F30E509541FFEE4930C
:100BFE00A360010ECF54C025E060A840B8E493A3D3
:100C0E00FAE493A3F8E493A3C8C582C8CAC583CAFD
:100C1E00F0A3C8C582C8CAC583CADFE9DEE780BEB5
:010E2D0000C4
:10080000BB010689828A83E0225002E722BBFE02F6
:09081000E32289828A83E4932229
:10081900BB010689828A83F0225002F722BBFE01BE
:02082900F322B8
:10082B00EF8DF0A4A8F0CF8CF0A428CE8DF0A42EE1
:02083B00FE229B
:10083D00C2D5EC30E709B2D5E4C39DFDE49CFCEED6
:10084D0030E715B2D5E4C39FFFE49EFE1209C2C383
:10085D00E49DFDE49CFC80031209C230D507C3E47E
:06086D009FFFE49EFE2245
:10087300BB010A89828A83F0E5F0A3F0225006F7D0
:0F08830009A7F01922BBFE06F3E5F009F31922CD
:10089200E88FF0A4CC8BF0A42CFCE98EF0A42CFC05
:1008A2008AF0EDA42CFCEA8EF0A4CDA8F08BF0A483
:1008B2002DCC3825F0FDE98FF0A42CCD35F0FCEBE2
:1008C2008EF0A4FEA9F0EB8FF0A4CFC5F02ECD39A7
:0F08D200FEE43CFCEAA42DCE35F0FDE43CFC2214
:1008E10075F008758200EF2FFFEE33FECD33CDCCCE
:1008F10033CCC58233C5829BED9AEC99E582984051
:100901000CF582EE9BFEED9AFDEC99FC0FD5F0D62D
:10091100E4CEFBE4CDFAE4CCF9A88222B800C1B957
:100921000059BA002DEC8BF084CFCECDFCE5F0CB95
:10093100F97818EF2FFFEE33FEED33FDEC33FCEBCE
:1009410033FB10D703994004EB99FB0FD8E5E4F989
:10095100FA227818EF2FFFEE33FEED33FDEC33FC76
:10096100C933C910D7059BE99A4007EC9BFCE99A6A
:10097100F90FD8E0E4C9FAE4CCFB2275F010EF2FAF
:10098100FFEE33FEED33FDCC33CCC833C810D707AF
:100991009BEC9AE899400AED9BFDEC9AFCE899F8EA
:0E09A1000FD5F0DAE4CDFBE4CCFAE4C8F9227D
:1009AF00E8600FECC313FCED13FDEE13FEEF13FF26
:0309BF00D8F1224A
:1009C200BC000BBE0029EF8DF084FFADF022E4CC19
:1009D200F875F008EF2FFFEE33FEEC33FCEE9DECE2
:1009E200984005FCEE9DFE0FD5F0E9E4CEFD22ED28
:1009F200F8F5F0EE8420D21CFEADF075F008EF2F72
:100A0200FFED33FD4007985006D5F0F222C398FD62
:050A12000FD5F0EA22FF
:00000001FF
